{
  "contractName": "ExchangeData",
  "abi": [
    {
      "constant": true,
      "inputs": [
        {
          "name": "",
          "type": "uint64"
        }
      ],
      "name": "rollbackOrderMap",
      "outputs": [
        {
          "name": "orderId",
          "type": "uint64"
        },
        {
          "name": "to",
          "type": "address"
        },
        {
          "name": "sellAmount",
          "type": "uint256"
        },
        {
          "name": "buyAmount",
          "type": "uint256"
        },
        {
          "name": "fee",
          "type": "uint256"
        }
      ],
      "payable": false,
      "stateMutability": "view",
      "type": "function"
    },
    {
      "constant": true,
      "inputs": [
        {
          "name": "",
          "type": "address"
        }
      ],
      "name": "tokenTable",
      "outputs": [
        {
          "name": "token_name",
          "type": "string"
        },
        {
          "name": "token_address",
          "type": "address"
        },
        {
          "name": "decimals",
          "type": "uint8"
        }
      ],
      "payable": false,
      "stateMutability": "view",
      "type": "function"
    },
    {
      "constant": true,
      "inputs": [
        {
          "name": "",
          "type": "address"
        }
      ],
      "name": "accessAllowed",
      "outputs": [
        {
          "name": "",
          "type": "bool"
        }
      ],
      "payable": false,
      "stateMutability": "view",
      "type": "function"
    },
    {
      "constant": false,
      "inputs": [
        {
          "name": "owner",
          "type": "address"
        },
        {
          "name": "access",
          "type": "bool"
        }
      ],
      "name": "setAccessAllow",
      "outputs": [],
      "payable": false,
      "stateMutability": "nonpayable",
      "type": "function"
    },
    {
      "constant": false,
      "inputs": [
        {
          "name": "newAddr",
          "type": "address"
        }
      ],
      "name": "setContractOwner",
      "outputs": [],
      "payable": false,
      "stateMutability": "nonpayable",
      "type": "function"
    },
    {
      "constant": true,
      "inputs": [],
      "name": "contractOwner",
      "outputs": [
        {
          "name": "",
          "type": "address"
        }
      ],
      "payable": false,
      "stateMutability": "view",
      "type": "function"
    },
    {
      "constant": true,
      "inputs": [
        {
          "name": "",
          "type": "uint64"
        }
      ],
      "name": "orderIdToUsers",
      "outputs": [
        {
          "name": "order_id",
          "type": "uint64"
        },
        {
          "name": "user_address",
          "type": "address"
        },
        {
          "name": "user_receiver",
          "type": "string"
        },
        {
          "name": "trade_type",
          "type": "bool"
        },
        {
          "name": "sell_amount",
          "type": "uint256"
        },
        {
          "name": "sell_contract",
          "type": "address"
        },
        {
          "name": "price",
          "type": "uint256"
        },
        {
          "name": "buy_amount",
          "type": "uint256"
        },
        {
          "name": "buy_contract",
          "type": "address"
        },
        {
          "name": "fees",
          "type": "uint256"
        },
        {
          "name": "withdraw_able",
          "type": "bool"
        },
        {
          "name": "ex_success",
          "type": "bool"
        },
        {
          "name": "create_at",
          "type": "uint256"
        },
        {
          "name": "update_at",
          "type": "uint256"
        }
      ],
      "payable": false,
      "stateMutability": "view",
      "type": "function"
    },
    {
      "constant": true,
      "inputs": [
        {
          "name": "",
          "type": "uint256"
        }
      ],
      "name": "tokenArray",
      "outputs": [
        {
          "name": "",
          "type": "address"
        }
      ],
      "payable": false,
      "stateMutability": "view",
      "type": "function"
    },
    {
      "constant": false,
      "inputs": [
        {
          "name": "orderId",
          "type": "uint64"
        },
        {
          "name": "userAddress",
          "type": "address"
        },
        {
          "name": "userReceiver",
          "type": "string"
        },
        {
          "name": "tradeType",
          "type": "bool"
        },
        {
          "name": "sellAmount",
          "type": "uint256"
        },
        {
          "name": "sellContract",
          "type": "address"
        },
        {
          "name": "price",
          "type": "uint256"
        },
        {
          "name": "buyContract",
          "type": "address"
        },
        {
          "name": "market_code",
          "type": "uint64"
        }
      ],
      "name": "createOrders",
      "outputs": [],
      "payable": false,
      "stateMutability": "nonpayable",
      "type": "function"
    },
    {
      "constant": false,
      "inputs": [
        {
          "name": "orderId",
          "type": "uint64"
        },
        {
          "name": "sellAmount",
          "type": "uint256"
        },
        {
          "name": "buyAmount",
          "type": "uint256"
        },
        {
          "name": "fees",
          "type": "uint256"
        },
        {
          "name": "withdrawAble",
          "type": "bool"
        },
        {
          "name": "exSuccess",
          "type": "bool"
        }
      ],
      "name": "setOrder",
      "outputs": [],
      "payable": false,
      "stateMutability": "nonpayable",
      "type": "function"
    },
    {
      "constant": false,
      "inputs": [
        {
          "name": "orderId",
          "type": "uint64"
        },
        {
          "name": "status",
          "type": "bool"
        }
      ],
      "name": "changeWithdrawStatus",
      "outputs": [],
      "payable": false,
      "stateMutability": "nonpayable",
      "type": "function"
    },
    {
      "constant": false,
      "inputs": [
        {
          "name": "orderId",
          "type": "uint64"
        }
      ],
      "name": "withdrawOrder",
      "outputs": [
        {
          "name": "amount",
          "type": "uint256"
        },
        {
          "name": "userAddress",
          "type": "address"
        },
        {
          "name": "tokenContract",
          "type": "address"
        }
      ],
      "payable": false,
      "stateMutability": "nonpayable",
      "type": "function"
    },
    {
      "constant": false,
      "inputs": [
        {
          "name": "orderId",
          "type": "uint64"
        },
        {
          "name": "to",
          "type": "address"
        },
        {
          "name": "sellAmount",
          "type": "uint256"
        },
        {
          "name": "buyAmount",
          "type": "uint256"
        },
        {
          "name": "feeAmount",
          "type": "uint256"
        }
      ],
      "name": "addSubmit",
      "outputs": [],
      "payable": false,
      "stateMutability": "nonpayable",
      "type": "function"
    },
    {
      "constant": false,
      "inputs": [
        {
          "name": "orderId",
          "type": "uint64"
        }
      ],
      "name": "rollbackSubmit",
      "outputs": [],
      "payable": false,
      "stateMutability": "nonpayable",
      "type": "function"
    },
    {
      "constant": false,
      "inputs": [
        {
          "name": "orderId",
          "type": "uint64"
        }
      ],
      "name": "getTransferInfo",
      "outputs": [
        {
          "name": "sellAmount",
          "type": "uint256"
        },
        {
          "name": "to",
          "type": "address"
        },
        {
          "name": "tokenContract",
          "type": "address"
        }
      ],
      "payable": false,
      "stateMutability": "nonpayable",
      "type": "function"
    },
    {
      "constant": false,
      "inputs": [
        {
          "name": "token_name",
          "type": "string"
        },
        {
          "name": "token_address",
          "type": "address"
        },
        {
          "name": "decimals",
          "type": "uint8"
        },
        {
          "name": "market_code",
          "type": "uint64"
        }
      ],
      "name": "addTokens",
      "outputs": [],
      "payable": false,
      "stateMutability": "nonpayable",
      "type": "function"
    },
    {
      "constant": false,
      "inputs": [
        {
          "name": "token_address",
          "type": "address"
        },
        {
          "name": "market_code",
          "type": "uint64"
        }
      ],
      "name": "deleteToken",
      "outputs": [],
      "payable": false,
      "stateMutability": "nonpayable",
      "type": "function"
    },
    {
      "constant": true,
      "inputs": [
        {
          "name": "tokenAddress",
          "type": "address"
        }
      ],
      "name": "getTokenInfo",
      "outputs": [
        {
          "name": "token_name",
          "type": "string"
        },
        {
          "name": "token_address",
          "type": "address"
        },
        {
          "name": "decimals",
          "type": "uint8"
        },
        {
          "name": "market_code_array",
          "type": "uint64[50]"
        }
      ],
      "payable": false,
      "stateMutability": "view",
      "type": "function"
    },
    {
      "constant": true,
      "inputs": [],
      "name": "getTokenArray",
      "outputs": [
        {
          "name": "",
          "type": "address[]"
        }
      ],
      "payable": false,
      "stateMutability": "view",
      "type": "function"
    }
  ],
  "bytecode": "0x6080604090815260008054600160a060020a0319163317808255600160a060020a0316815260016020819052919020805460ff19169091179055612970806100486000396000f3fe608060405260043610610100577c01000000000000000000000000000000000000000000000000000000006000350463108a03b981146101055780631638550b146101775780631712046f146101ad5780631f69565f1461020957806322d2ca35146102fb57806341e4be54146103cc5780635492c9f9146104215780635a7705b71461047757806372501976146104ab5780639bab223e146104f2578063a34d42b81461052d578063bda3d1b114610560578063bf5c4b1e14610668578063ce606ee01461073c578063cf37d74e1461076d578063d1f769f8146107d2578063dedb6e401461092f578063f2cf5a1f14610972578063faa32f5d146109ae575b600080fd5b34801561011157600080fd5b506101396004803603602081101561012857600080fd5b503567ffffffffffffffff166109d8565b6040805167ffffffffffffffff9096168652600160a060020a0390941660208601528484019290925260608401526080830152519081900360a00190f35b34801561018357600080fd5b506101ab6004803603602081101561019a57600080fd5b503567ffffffffffffffff16610a1f565b005b3480156101b957600080fd5b506101e1600480360360208110156101d057600080fd5b503567ffffffffffffffff16610c3d565b60408051938452600160a060020a039283166020850152911682820152519081900360600190f35b34801561021557600080fd5b5061023c6004803603602081101561022c57600080fd5b5035600160a060020a0316610ed8565b60408051600160a060020a038516602082015260ff84169181019190915280606081018361064080838360005b83811015610281578181015183820152602001610269565b50505050905001828103825286818151815260200191508051906020019080838360005b838110156102bd5781810151838201526020016102a5565b50505050905090810190601f1680156102ea5780820380516001836020036101000a031916815260200191505b509550505050505060405180910390f35b34801561030757600080fd5b5061032e6004803603602081101561031e57600080fd5b5035600160a060020a0316611037565b604051808060200184600160a060020a0316600160a060020a031681526020018360ff1660ff168152602001828103825285818151815260200191508051906020019080838360005b8381101561038f578181015183820152602001610377565b50505050905090810190601f1680156103bc5780820380516001836020036101000a031916815260200191505b5094505050505060405180910390f35b3480156103d857600080fd5b506101ab600480360360a08110156103ef57600080fd5b5067ffffffffffffffff81351690600160a060020a036020820135169060408101359060608101359060800135611105565b34801561042d57600080fd5b506101ab600480360360c081101561044457600080fd5b5067ffffffffffffffff81351690602081013590604081013590606081013590608081013515159060a001351515611506565b34801561048357600080fd5b506101e16004803603602081101561049a57600080fd5b503567ffffffffffffffff1661161d565b3480156104b757600080fd5b506104de600480360360208110156104ce57600080fd5b5035600160a060020a0316611763565b604080519115158252519081900360200190f35b3480156104fe57600080fd5b506101ab6004803603604081101561051557600080fd5b50600160a060020a0381351690602001351515611778565b34801561053957600080fd5b506101ab6004803603602081101561055057600080fd5b5035600160a060020a03166117f6565b34801561056c57600080fd5b506101ab600480360361012081101561058457600080fd5b67ffffffffffffffff82351691600160a060020a03602082013516918101906060810160408201356401000000008111156105be57600080fd5b8201836020820111156105d057600080fd5b803590602001918460018302840111640100000000831117156105f257600080fd5b91908080601f0160208091040260200160405190810160405280939291908181526020018383808284376000920191909152509295505050508035151591506020810135906040810135600160a060020a03908116916060810135916080820135169060a0013567ffffffffffffffff166118a5565b34801561067457600080fd5b506101ab6004803603608081101561068b57600080fd5b8101906020810181356401000000008111156106a657600080fd5b8201836020820111156106b857600080fd5b803590602001918460018302840111640100000000831117156106da57600080fd5b91908080601f01602080910402602001604051908101604052809392919081815260200183838082843760009201919091525092955050508135600160a060020a0316925050602081013560ff16906040013567ffffffffffffffff16611c20565b34801561074857600080fd5b50610751611fda565b60408051600160a060020a039092168252519081900360200190f35b34801561077957600080fd5b50610782611fe9565b60408051602080825283518183015283519192839290830191858101910280838360005b838110156107be5781810151838201526020016107a6565b505050509050019250505060405180910390f35b3480156107de57600080fd5b50610806600480360360208110156107f557600080fd5b503567ffffffffffffffff1661204c565b604051808f67ffffffffffffffff1667ffffffffffffffff1681526020018e600160a060020a0316600160a060020a03168152602001806020018d1515151581526020018c81526020018b600160a060020a0316600160a060020a031681526020018a815260200189815260200188600160a060020a0316600160a060020a03168152602001878152602001861515151581526020018515151515815260200184815260200183815260200182810382528e818151815260200191508051906020019080838360005b838110156108e75781810151838201526020016108cf565b50505050905090810190601f1680156109145780820380516001836020036101000a031916815260200191505b509f5050505050505050505050505050505060405180910390f35b34801561093b57600080fd5b506101ab6004803603604081101561095257600080fd5b508035600160a060020a0316906020013567ffffffffffffffff16612173565b34801561097e57600080fd5b506101ab6004803603604081101561099557600080fd5b5067ffffffffffffffff81351690602001351515612376565b3480156109ba57600080fd5b50610751600480360360208110156109d157600080fd5b503561245c565b600460205260009081526040902080546001820154600283015460039093015467ffffffffffffffff83169368010000000000000000909304600160a060020a0316929085565b3360008181526001602052604090205460ff161515610a76576040805160e560020a62461bcd0281526020600482015260116024820152600080516020612905833981519152604482015290519081900360640190fd5b610a7f82612484565b1515610ad5576040805160e560020a62461bcd02815260206004820152601060248201527f45786368616e6765446174613a31363500000000000000000000000000000000604482015290519081900360640190fd5b67ffffffffffffffff821660009081526004602090815260408083206003808201546001909201546002909452919093200154610b299291610b1d919063ffffffff6124ca16565b9063ffffffff6124ca16565b67ffffffffffffffff831660009081526002602081815260408084206003810195909555600482529092208101549152600690910154610b6e9163ffffffff61253016565b67ffffffffffffffff83166000908152600260208181526040808420600681019590955560048252909220600301549152600890910154610bb49163ffffffff61253016565b67ffffffffffffffff9290921660009081526002602081815260408084206008810196909655600986018054600160ff19909116811761ff00191690915542600b909701969096556004909152822080547bffffffffffffffffffffffffffffffffffffffffffffffffffffffff19168155938401829055830181905560039092019190915550565b336000818152600160205260408120549091829182919060ff161515610c9b576040805160e560020a62461bcd0281526020600482015260116024820152600080516020612905833981519152604482015290519081900360640190fd5b610ca485612590565b1515610cfa576040805160e560020a62461bcd02815260206004820152601060248201527f45786368616e6765446174613a31323200000000000000000000000000000000604482015290519081900360640190fd5b67ffffffffffffffff8516600090815260026020526040902060090154610100900460ff1615610d74576040805160e560020a62461bcd02815260206004820152601060248201527f45786368616e6765446174613a31323300000000000000000000000000000000604482015290519081900360640190fd5b67ffffffffffffffff851660009081526002602052604090206009015460ff161515610dea576040805160e560020a62461bcd02815260206004820152601060248201527f45786368616e6765446174613a31323400000000000000000000000000000000604482015290519081900360640190fd5b67ffffffffffffffff851660009081526002602052604081206003810154815460048301547bffffffffffffffffffffffffffffffffffffffffffffffffffffffff1982168455919750600160a060020a03680100000000000000009091048116965016935090610e5e6001830182612727565b5060028101805460ff1916905560006003820181905560048201805473ffffffffffffffffffffffffffffffffffffffff19908116909155600583018290556006830182905560078301805490911690556008820181905560098201805461ffff19169055600a8201819055600b90910155509193909250565b6060600080610ee561276e565b600160a060020a03851660009081526003602090815260409182902080548351601f600260001961010060018616150201909316929092049182018490048402810184019094528084529091830182828015610f825780601f10610f5757610100808354040283529160200191610f82565b820191906000526020600020905b815481529060010190602001808311610f6557829003601f168201915b50505050600160a060020a0387811660009081526003602052604080822060018101548251610640810193849052969a5093841698507401000000000000000000000000000000000000000090930460ff16965060029092019250603291908390855b82829054906101000a900467ffffffffffffffff1667ffffffffffffffff1681526020019060080190602082600701049283019260010382029150808411610fe5579050505050505090509193509193565b60036020908152600091825260409182902080548351601f600260001961010060018616150201909316929092049182018490048402810184019094528084529092918391908301828280156110ce5780601f106110a3576101008083540402835291602001916110ce565b820191906000526020600020905b8154815290600101906020018083116110b157829003601f168201915b50505060019093015491925050600160a060020a0381169060ff740100000000000000000000000000000000000000009091041683565b3360008181526001602052604090205460ff16151561115c576040805160e560020a62461bcd0281526020600482015260116024820152600080516020612905833981519152604482015290519081900360640190fd5b61116586612590565b15156111bb576040805160e560020a62461bcd02815260206004820152601060248201527f45786368616e6765446174613a31333700000000000000000000000000000000604482015290519081900360640190fd5b6111c486612484565b15611219576040805160e560020a62461bcd02815260206004820152601060248201527f45786368616e6765446174613a31333800000000000000000000000000000000604482015290519081900360640190fd5b67ffffffffffffffff8616600090815260026020526040902060090154610100900460ff1615611293576040805160e560020a62461bcd02815260206004820152601060248201527f45786368616e6765446174613a31333900000000000000000000000000000000604482015290519081900360640190fd5b6112a3848363ffffffff6124ca16565b67ffffffffffffffff87166000908152600260205260409020600301541015611316576040805160e560020a62461bcd02815260206004820152601060248201527f45786368616e6765446174613a31343000000000000000000000000000000000604482015290519081900360640190fd5b600080611329868563ffffffff6124ca16565b67ffffffffffffffff891660009081526002602052604090206003015411156113585750600190506000611360565b506000905060015b61136861278e565b506040805160a08101825267ffffffffffffffff8a8116808352600160a060020a038b811660208086019182528587018d8152606087018d8152608088018d815260009687526004845289872089518154965167ffffffffffffffff199097169916989098177bffffffffffffffffffffffffffffffffffffffff000000000000000019166801000000000000000095909616949094029490941786555160018601559151600280860191909155905160039485015590529290922090910154611444908690611438908a612530565b9063ffffffff61253016565b67ffffffffffffffff8a166000908152600260205260409020600381019190915560060154611479908763ffffffff6124ca16565b67ffffffffffffffff8a1660009081526002602052604090206006810191909155600801546114ae908663ffffffff6124ca16565b67ffffffffffffffff99909916600090815260026020526040902060088101999099555060098801805460ff19169215159290921761ff00191661010091151591909102179055505042600b90940193909355505050565b3360008181526001602052604090205460ff16151561155d576040805160e560020a62461bcd0281526020600482015260116024820152600080516020612905833981519152604482015290519081900360640190fd5b61156687612590565b15156115bc576040805160e560020a62461bcd02815260206004820152601060248201527f45786368616e6765446174613a31303100000000000000000000000000000000604482015290519081900360640190fd5b5067ffffffffffffffff95909516600090815260026020526040902060038101949094556006840192909255600883015560098201805460ff19169115159190911761ff001916610100931515939093029290921790915542600b90910155565b336000818152600160205260408120549091829182919060ff16151561167b576040805160e560020a62461bcd0281526020600482015260116024820152600080516020612905833981519152604482015290519081900360640190fd5b61168485612484565b15156116da576040805160e560020a62461bcd02815260206004820152601060248201527f45786368616e6765446174613a31383000000000000000000000000000000000604482015290519081900360640190fd5b5050505067ffffffffffffffff16600090815260046020818152604080842060018101805482546002808752948820870154969095527bffffffffffffffffffffffffffffffffffffffffffffffffffffffff19851683559086905591810185905560030193909355919268010000000000000000909204600160a060020a0390811692911690565b60016020526000908152604090205460ff1681565b6000543390600160a060020a031681146117ca576040805160e560020a62461bcd0281526020600482015260116024820152600080516020612925833981519152604482015290519081900360640190fd5b50600160a060020a03919091166000908152600160205260409020805460ff1916911515919091179055565b6000543390600160a060020a03168114611848576040805160e560020a62461bcd0281526020600482015260116024820152600080516020612925833981519152604482015290519081900360640190fd5b5060008054600160a060020a039081168252600160208190526040808420805460ff19908116909155845473ffffffffffffffffffffffffffffffffffffffff191695841695909517808555909216835291208054909216179055565b3360008181526001602052604090205460ff1615156118fc576040805160e560020a62461bcd0281526020600482015260116024820152600080516020612905833981519152604482015290519081900360640190fd5b6119058a612590565b1561195a576040805160e560020a62461bcd02815260206004820152600f60248201527f45786368616e6765446174613a36350000000000000000000000000000000000604482015290519081900360640190fd5b600160a060020a038516156119c95761197385836125cb565b15156119c9576040805160e560020a62461bcd02815260206004820152600f60248201527f45786368616e6765446174613a36370000000000000000000000000000000000604482015290519081900360640190fd5b600160a060020a03831615611a38576119e283836125cb565b1515611a38576040805160e560020a62461bcd02815260206004820152600f60248201527f45786368616e6765446174613a37300000000000000000000000000000000000604482015290519081900360640190fd5b611a406127d1565b50604080516101c08101825267ffffffffffffffff8c8116808352600160a060020a038d811660208086019182528587018f81528e15156060880152608087018e90528c841660a088015260c087018c9052600060e088018190528b85166101008901526101208801819052600161014089018190526101608901829052426101808a018190526101a08a0152958152600283529790972086518154935167ffffffffffffffff199094169616959095177bffffffffffffffffffffffffffffffffffffffff000000000000000019166801000000000000000092909316919091029190911783559351805193948594611b40938501929091019061286c565b50606082015160028201805491151560ff199283161790556080830151600383015560a0830151600483018054600160a060020a0392831673ffffffffffffffffffffffffffffffffffffffff199182161790915560c0850151600585015560e0850151600685015561010080860151600786018054919094169216919091179091556101208401516008840155610140840151600984018054610160870151151590930261ff0019921515939094169290921716919091179055610180820151600a8201556101a090910151600b909101555050505050505050505050565b6000543390600160a060020a03168114611c72576040805160e560020a62461bcd0281526020600482015260116024820152600080516020612925833981519152604482015290519081900360640190fd5b600160a060020a0384161515611cd2576040805160e560020a62461bcd02815260206004820152601060248201527f45786368616e6765446174613a32313900000000000000000000000000000000604482015290519081900360640190fd5b84511515611d2a576040805160e560020a62461bcd02815260206004820152601060248201527f45786368616e6765446174613a32323000000000000000000000000000000000604482015290519081900360640190fd5b67ffffffffffffffff82161515611d8b576040805160e560020a62461bcd02815260206004820152601060248201527f45786368616e6765446174613a32323100000000000000000000000000000000604482015290519081900360640190fd5b600060ff841611611de6576040805160e560020a62461bcd02815260206004820152601060248201527f45786368616e6765446174613a32323200000000000000000000000000000000604482015290519081900360640190fd5b600160a060020a03848116600090815260036020526040902060010154161515611f0157600160a060020a038416600090815260036020908152604090912060028101805467ffffffffffffffff191667ffffffffffffffff86161790558651611e529288019061286c565b50600160a060020a03841660008181526003602052604081206001908101805460ff8816740100000000000000000000000000000000000000000274ff00000000000000000000000000000000000000001973ffffffffffffffffffffffffffffffffffffffff19928316871716179091556005805492830181559092527f036b6384b5eca791c62761152d0c79bb0604c104a5fb6f4eb0703f3154bb3db00180549091169091179055611fd3565b611f0b8483612609565b15611f60576040805160e560020a62461bcd02815260206004820152601060248201527f45786368616e6765446174613a32333100000000000000000000000000000000604482015290519081900360640190fd5b6000611f6b856126a1565b600160a060020a0386166000908152600360205260409020909150839060020167ffffffffffffffff831660328110611fa057fe5b600491828204019190066008026101000a81548167ffffffffffffffff021916908367ffffffffffffffff160217905550505b5050505050565b600054600160a060020a031681565b6060600580548060200260200160405190810160405280929190818152602001828054801561204157602002820191906000526020600020905b8154600160a060020a03168152600190910190602001808311612023575b505050505090505b90565b60026020818152600092835260409283902080546001808301805487516101009382161593909302600019011695909504601f810185900485028201850190965285815267ffffffffffffffff82169568010000000000000000909204600160a060020a03169492939092919083018282801561210a5780601f106120df5761010080835404028352916020019161210a565b820191906000526020600020905b8154815290600101906020018083116120ed57829003601f168201915b50505050600283015460038401546004850154600586015460068701546007880154600889015460098a0154600a8b0154600b909b0154999a60ff9889169a979950600160a060020a03968716989597949690931694919382821693610100909204909216918e565b6000543390600160a060020a031681146121c5576040805160e560020a62461bcd0281526020600482015260116024820152600080516020612925833981519152604482015290519081900360640190fd5b67ffffffffffffffff82161515612226576040805160e560020a62461bcd02815260206004820152601060248201527f45786368616e6765446174613a32333900000000000000000000000000000000604482015290519081900360640190fd5b600160a060020a0383811660009081526003602052604090206001015416151561229a576040805160e560020a62461bcd02815260206004820152601060248201527f45786368616e6765446174613a32343000000000000000000000000000000000604482015290519081900360640190fd5b60005b60328167ffffffffffffffff16101561237057600160a060020a038416600090815260036020526040902067ffffffffffffffff80851691600201908316603281106122e557fe5b600491828204019190066008029054906101000a900467ffffffffffffffff1667ffffffffffffffff16141561236857600160a060020a038416600090815260036020526040902060020167ffffffffffffffff82166032811061234557fe5b600491828204019190066008026101000a81549067ffffffffffffffff02191690555b60010161229d565b50505050565b3360008181526001602052604090205460ff1615156123cd576040805160e560020a62461bcd0281526020600482015260116024820152600080516020612905833981519152604482015290519081900360640190fd5b6123d683612590565b151561242c576040805160e560020a62461bcd02815260206004820152601060248201527f45786368616e6765446174613a31313400000000000000000000000000000000604482015290519081900360640190fd5b5067ffffffffffffffff919091166000908152600260205260409020600901805460ff1916911515919091179055565b600580548290811061246a57fe5b600091825260209091200154600160a060020a0316905081565b67ffffffffffffffff8116600090815260046020526040812054680100000000000000009004600160a060020a0316156124bf5760016124c2565b60005b90505b919050565b600082820183811015612527576040805160e560020a62461bcd02815260206004820152601b60248201527f536166654d6174683a206164646974696f6e206f766572666c6f770000000000604482015290519081900360640190fd5b90505b92915050565b60008282111561258a576040805160e560020a62461bcd02815260206004820152601e60248201527f536166654d6174683a207375627472616374696f6e206f766572666c6f770000604482015290519081900360640190fd5b50900390565b67ffffffffffffffff8116600090815260026020526040812054680100000000000000009004600160a060020a0316156124bf5760016124c2565b600160a060020a0382811660009081526003602052604081206001015490911615612601576125fa8383612609565b905061252a565b50600061252a565b6000805b60328167ffffffffffffffff16101561269757600160a060020a038416600090815260036020526040902067ffffffffffffffff808516916002019083166032811061265557fe5b600491828204019190066008029054906101000a900467ffffffffffffffff1667ffffffffffffffff16141561268f57600191505061252a565b60010161260d565b5060009392505050565b6000805b60328167ffffffffffffffff16101561271e57600160a060020a038316600090815260036020526040902060020167ffffffffffffffff8216603281106126e857fe5b60048104919091015460039091166008026101000a900467ffffffffffffffff1615156127165790506124c5565b6001016126a5565b50600092915050565b50805460018160011615610100020316600290046000825580601f1061274d575061276b565b601f01602090049060005260206000209081019061276b91906128ea565b50565b610640604051908101604052806032906020820280388339509192915050565b60a060405190810160405280600067ffffffffffffffff1681526020016000600160a060020a031681526020016000815260200160008152602001600081525090565b6101c060405190810160405280600067ffffffffffffffff1681526020016000600160a060020a0316815260200160608152602001600015158152602001600081526020016000600160a060020a0316815260200160008152602001600081526020016000600160a060020a031681526020016000815260200160001515815260200160001515815260200160008152602001600081525090565b828054600181600116156101000203166002900490600052602060002090601f016020900481019282601f106128ad57805160ff19168380011785556128da565b828001600101855582156128da579182015b828111156128da5782518255916020019190600101906128bf565b506128e69291506128ea565b5090565b61204991905b808211156128e657600081556001016128f056fe45786368616e67654f776e6572733a333900000000000000000000000000000045786368616e67654f776e6572733a3333000000000000000000000000000000a165627a7a7230582040ea1f23726bdd5347678f4f928744fdd291ddf0cc9e700a1086216581eedc190029",
  "source": "pragma solidity >=0.4.21 <0.6.0;\r\n\r\nimport \"../node_modules/openzeppelin-solidity/contracts/math/SafeMath.sol\";\r\nimport \"./ExchangeOwners.sol\";\r\n\r\n//\r\ncontract ExchangeData is ExchangeOwners {\r\n    using SafeMath for *;\r\n\r\n    mapping(uint64 => orders) public  orderIdToUsers;            //\r\n    mapping(address => tokens) public tokenTable;                //\r\n    mapping(uint64 => rollbackOrder)public rollbackOrderMap;     //\r\n    address[] public tokenArray;                                 //\r\n\r\n    struct orders\r\n    {\r\n        uint64 order_id;                                         //id\r\n        address user_address;                                    //\r\n        string user_receiver;                                    //\r\n        bool trade_type;                                         //\r\n        uint256 sell_amount;                                     //\r\n        address sell_contract;                                   //\r\n        uint256 price;                                           //\r\n        uint256 buy_amount;                                      //\r\n        address buy_contract;                                    //\r\n        uint256 fees;                                            //\r\n        bool withdraw_able;                                      //\r\n        bool ex_success;                                         //\r\n        uint256 create_at;                                       //\r\n        uint256 update_at;                                       //\r\n    }\r\n\r\n    struct tokens\r\n    {\r\n        string token_name;                                       //\r\n        address token_address;                                   //\r\n        uint8 decimals;                                          //\r\n        uint64[50] market_code_array;                              //  2=eth,3=bdex\r\n    }\r\n\r\n    struct rollbackOrder\r\n    {\r\n        uint64 orderId;                                           //id\r\n        address to;                                               //\r\n        uint256 sellAmount;                                       //\r\n        uint256 buyAmount;                                        //\r\n        uint256 fee;                                              //\r\n    }\r\n\r\n\r\n    //()\r\n    function createOrders(\r\n        uint64 orderId,\r\n        address userAddress,\r\n        string  memory userReceiver,\r\n        bool tradeType,\r\n        uint256 sellAmount,\r\n        address sellContract,\r\n        uint256 price,\r\n        address buyContract,\r\n        uint64 market_code)\r\n    public\r\n    isOwners(msg.sender)\r\n    {\r\n        require(!isExistOrder(orderId), \"ExchangeData:65\");\r\n        if (sellContract != address(0)) {\r\n            require(isExistToken(sellContract, market_code), \"ExchangeData:67\");\r\n        }\r\n        if (buyContract != address(0)) {\r\n            require(isExistToken(buyContract, market_code), \"ExchangeData:70\");\r\n        }\r\n        orders memory user = orders(\r\n            orderId,\r\n            userAddress,\r\n            userReceiver,\r\n            tradeType,\r\n            sellAmount,\r\n            sellContract,\r\n            price,\r\n            0,\r\n            buyContract,\r\n            0,\r\n            true,\r\n            false,\r\n            now,\r\n            now);\r\n        orderIdToUsers[orderId] = user;\r\n    }\r\n\r\n    //()\r\n    function setOrder(\r\n        uint64 orderId,\r\n        uint256 sellAmount,\r\n        uint256 buyAmount,\r\n        uint256 fees,\r\n        bool withdrawAble,\r\n        bool exSuccess)\r\n    public\r\n    isOwners(msg.sender)\r\n    {\r\n        require(isExistOrder(orderId), \"ExchangeData:101\");\r\n        orderIdToUsers[orderId].sell_amount = sellAmount;\r\n        orderIdToUsers[orderId].buy_amount = buyAmount;\r\n        orderIdToUsers[orderId].fees = fees;\r\n        orderIdToUsers[orderId].withdraw_able = withdrawAble;\r\n        orderIdToUsers[orderId].ex_success = exSuccess;\r\n        orderIdToUsers[orderId].update_at = now;\r\n    }\r\n    //()\r\n    function changeWithdrawStatus(uint64 orderId, bool status)\r\n    public\r\n    isOwners(msg.sender)\r\n    {\r\n        require(isExistOrder(orderId), \"ExchangeData:114\");\r\n        orderIdToUsers[orderId].withdraw_able = status;\r\n    }\r\n    //()\r\n    function withdrawOrder(uint64 orderId)\r\n    public isOwners(msg.sender)\r\n    returns (uint256 amount, address userAddress, address tokenContract)\r\n    {\r\n        require(isExistOrder(orderId), \"ExchangeData:122\");\r\n        require(!orderIdToUsers[orderId].ex_success, \"ExchangeData:123\");\r\n        require(orderIdToUsers[orderId].withdraw_able, \"ExchangeData:124\");\r\n\r\n        amount = orderIdToUsers[orderId].sell_amount;\r\n        userAddress = orderIdToUsers[orderId].user_address;\r\n        tokenContract = orderIdToUsers[orderId].sell_contract;\r\n        delete (orderIdToUsers[orderId]);\r\n    }\r\n\r\n    //()\r\n    function addSubmit(uint64 orderId, address to, uint256 sellAmount, uint256 buyAmount, uint256 feeAmount)\r\n    public\r\n    isOwners(msg.sender)\r\n    {\r\n        require(isExistOrder(orderId), \"ExchangeData:137\");\r\n        require(!isExistRollbackOrder(orderId), \"ExchangeData:138\");\r\n        require(!orderIdToUsers[orderId].ex_success, \"ExchangeData:139\");\r\n        require(orderIdToUsers[orderId].sell_amount >= sellAmount.add(feeAmount), \"ExchangeData:140\");\r\n        bool is_withdraw;\r\n        bool is_success;\r\n        if (orderIdToUsers[orderId].sell_amount > sellAmount.add(feeAmount)) {\r\n            is_withdraw = true;\r\n            is_success = false;\r\n        } else {\r\n            is_withdraw = false;\r\n            is_success = true;\r\n        }\r\n        rollbackOrder memory rollbackMap = rollbackOrder(orderId, to, sellAmount, buyAmount, feeAmount);\r\n        rollbackOrderMap[orderId] = rollbackMap;\r\n\r\n        orderIdToUsers[orderId].sell_amount = orderIdToUsers[orderId].sell_amount.sub(sellAmount).sub(feeAmount);\r\n        orderIdToUsers[orderId].buy_amount = orderIdToUsers[orderId].buy_amount.add(buyAmount);\r\n        orderIdToUsers[orderId].fees = orderIdToUsers[orderId].fees.add(feeAmount);\r\n        orderIdToUsers[orderId].withdraw_able = is_withdraw;\r\n        orderIdToUsers[orderId].ex_success = is_success;\r\n        orderIdToUsers[orderId].update_at = now;\r\n    }\r\n    //()\r\n    function rollbackSubmit(uint64 orderId)\r\n    public\r\n    isOwners(msg.sender)\r\n    {\r\n        require(isExistRollbackOrder(orderId), \"ExchangeData:165\");\r\n        orderIdToUsers[orderId].sell_amount = orderIdToUsers[orderId].sell_amount.add(rollbackOrderMap[orderId].sellAmount).add(rollbackOrderMap[orderId].fee);\r\n        orderIdToUsers[orderId].buy_amount = orderIdToUsers[orderId].buy_amount.sub(rollbackOrderMap[orderId].buyAmount);\r\n        orderIdToUsers[orderId].fees = orderIdToUsers[orderId].fees.sub(rollbackOrderMap[orderId].fee);\r\n        orderIdToUsers[orderId].withdraw_able = true;\r\n        orderIdToUsers[orderId].ex_success = false;\r\n        orderIdToUsers[orderId].update_at = now;\r\n        delete (rollbackOrderMap[orderId]);\r\n    }\r\n    //()\r\n    function getTransferInfo(uint64 orderId)\r\n    public\r\n    isOwners(msg.sender)\r\n    returns (uint256 sellAmount, address to, address tokenContract)\r\n    {\r\n        require(isExistRollbackOrder(orderId), \"ExchangeData:180\");\r\n        sellAmount = rollbackOrderMap[orderId].sellAmount;\r\n        to = rollbackOrderMap[orderId].to;\r\n        tokenContract = orderIdToUsers[orderId].sell_contract;\r\n        delete (rollbackOrderMap[orderId]);\r\n    }\r\n    //token()\r\n    function isExistToken(address addr, uint64 market_code) view internal returns (bool){\r\n        if (tokenTable[addr].token_address != address(0)) {\r\n            return isExistMarketCodeArray(addr, market_code);\r\n        } else {\r\n            return false;\r\n        }\r\n    }\r\n    //true=false=()\r\n    function isExistRollbackOrder(uint64 orderId)\r\n    view internal\r\n    returns (bool)\r\n    {\r\n        return (rollbackOrderMap[orderId].to == address(0)) ? false : true;\r\n    }\r\n\r\n    //true=false=()\r\n    function isExistOrder(uint64 orderId)\r\n    view internal\r\n    returns (bool)\r\n    {\r\n        return (orderIdToUsers[orderId].user_address == address(0)) ? false : true;\r\n    }\r\n    //()\r\n    function addTokens(\r\n        string  memory token_name,\r\n        address token_address,\r\n        uint8 decimals,\r\n        uint64 market_code\r\n    )\r\n    public\r\n    isContractOwner(msg.sender)\r\n    {\r\n        require(token_address != address(0), \"ExchangeData:219\");\r\n        require(bytes(token_name).length != 0, \"ExchangeData:220\");\r\n        require(market_code != 0, \"ExchangeData:221\");\r\n        require(decimals > 0, \"ExchangeData:222\");\r\n\r\n        if (tokenTable[token_address].token_address == address(0)) {\r\n            tokenTable[token_address].market_code_array[0] = market_code;\r\n            tokenTable[token_address].token_name = token_name;\r\n            tokenTable[token_address].token_address = token_address;\r\n            tokenTable[token_address].decimals = decimals;\r\n            tokenArray.push(token_address);\r\n        } else {\r\n            require(!isExistMarketCodeArray(token_address, market_code), \"ExchangeData:231\");\r\n            uint64 index = getMarketCodeArrayNullIndex(token_address);\r\n            tokenTable[token_address].market_code_array[index] = market_code;\r\n        }\r\n\r\n    }\r\n    //()\r\n    function deleteToken(address token_address, uint64 market_code) public isContractOwner(msg.sender) {\r\n        require(market_code != 0, \"ExchangeData:239\");\r\n        require(tokenTable[token_address].token_address != address(0), \"ExchangeData:240\");\r\n        for (uint64 i = 0; i < 50; i++) {\r\n            if (tokenTable[token_address].market_code_array[i] == market_code) {\r\n                delete (tokenTable[token_address].market_code_array[i]);\r\n            }\r\n        }\r\n    }\r\n    //marketCode()\r\n    function isExistMarketCodeArray(address addr, uint64 code) view internal returns (bool){\r\n        for (uint64 i = 0; i < 50; i++) {\r\n            if (tokenTable[addr].market_code_array[i] == code) {\r\n                return true;\r\n            }\r\n        }\r\n        return false;\r\n    }\r\n    //()\r\n    function getMarketCodeArrayNullIndex(address addr) view internal returns (uint64){\r\n        for (uint64 i = 0; i < 50; i++) {\r\n            if (tokenTable[addr].market_code_array[i] == 0) {\r\n                return i;\r\n            }\r\n        }\r\n        return 0;\r\n    }\r\n    //()\r\n    function getTokenInfo(address tokenAddress) \r\n    view \r\n    public \r\n    returns (\r\n        string memory token_name, \r\n        address token_address, \r\n        uint8 decimals, \r\n        uint64[50] memory market_code_array\r\n        ){\r\n        token_name = tokenTable[tokenAddress].token_name;\r\n        token_address = tokenTable[tokenAddress].token_address;\r\n        decimals = tokenTable[tokenAddress].decimals;\r\n        market_code_array = tokenTable[tokenAddress].market_code_array;\r\n    }\r\n\r\n    //()\r\n    function getTokenArray()\r\n    public view\r\n    returns (address[] memory)\r\n    {\r\n        return tokenArray;\r\n    }\r\n}\r\n",
  "sourcePath": "C:\\Program Files\\code\\js\\bdex-eth-contract\\contracts\\ExchangeData.sol",
  "compiler": {
    "name": "solc",
    "version": "0.5.1+commit.c8a2cb62.Emscripten.clang"
  },
  "schemaVersion": "3.0.11",
  "updatedAt": "2019-08-26T05:40:00.623Z",
  "devdoc": {
    "methods": {}
  },
  "userdoc": {
    "methods": {}
  }
}