{
  "contractName": "ExchangeSafeControl",
  "abi": [
    {
      "constant": true,
      "inputs": [],
      "name": "startContract",
      "outputs": [
        {
          "name": "",
          "type": "bool"
        }
      ],
      "payable": false,
      "stateMutability": "view",
      "type": "function"
    },
    {
      "constant": true,
      "inputs": [
        {
          "name": "",
          "type": "address"
        }
      ],
      "name": "accessAllowed",
      "outputs": [
        {
          "name": "",
          "type": "bool"
        }
      ],
      "payable": false,
      "stateMutability": "view",
      "type": "function"
    },
    {
      "constant": false,
      "inputs": [
        {
          "name": "owner",
          "type": "address"
        },
        {
          "name": "access",
          "type": "bool"
        }
      ],
      "name": "setAccessAllow",
      "outputs": [],
      "payable": false,
      "stateMutability": "nonpayable",
      "type": "function"
    },
    {
      "constant": false,
      "inputs": [
        {
          "name": "newAddr",
          "type": "address"
        }
      ],
      "name": "setContractOwner",
      "outputs": [],
      "payable": false,
      "stateMutability": "nonpayable",
      "type": "function"
    },
    {
      "constant": true,
      "inputs": [],
      "name": "contractOwner",
      "outputs": [
        {
          "name": "",
          "type": "address"
        }
      ],
      "payable": false,
      "stateMutability": "view",
      "type": "function"
    },
    {
      "inputs": [],
      "payable": false,
      "stateMutability": "nonpayable",
      "type": "constructor"
    },
    {
      "constant": false,
      "inputs": [
        {
          "name": "addr",
          "type": "address"
        }
      ],
      "name": "setExchangeData",
      "outputs": [],
      "payable": false,
      "stateMutability": "nonpayable",
      "type": "function"
    },
    {
      "constant": false,
      "inputs": [],
      "name": "pauseContract",
      "outputs": [],
      "payable": false,
      "stateMutability": "nonpayable",
      "type": "function"
    },
    {
      "constant": false,
      "inputs": [],
      "name": "restartContract",
      "outputs": [],
      "payable": false,
      "stateMutability": "nonpayable",
      "type": "function"
    },
    {
      "constant": false,
      "inputs": [],
      "name": "destroyContract",
      "outputs": [],
      "payable": false,
      "stateMutability": "nonpayable",
      "type": "function"
    },
    {
      "constant": false,
      "inputs": [],
      "name": "withdrawAllContractMoney",
      "outputs": [],
      "payable": false,
      "stateMutability": "nonpayable",
      "type": "function"
    },
    {
      "constant": false,
      "inputs": [
        {
          "name": "amount",
          "type": "uint256"
        },
        {
          "name": "tokenContract",
          "type": "address"
        }
      ],
      "name": "withdrawalSomeContractMoney",
      "outputs": [],
      "payable": false,
      "stateMutability": "nonpayable",
      "type": "function"
    },
    {
      "constant": true,
      "inputs": [
        {
          "name": "tokenContract",
          "type": "address"
        }
      ],
      "name": "getExchangeBalance",
      "outputs": [
        {
          "name": "",
          "type": "uint256"
        }
      ],
      "payable": false,
      "stateMutability": "view",
      "type": "function"
    }
  ],
  "bytecode": "0x608060405234801561001057600080fd5b5060008054600160a060020a0319163317808255600160a060020a03168152600160208190526040909120805460ff199081168317909155600280549091169091179055610d32806100636000396000f3fe6080604052600436106100b3577c01000000000000000000000000000000000000000000000000000000006000350463092a5cce81146100b8578063094fe57a146100cf57806330a52d5b14610102578063439766ce1461011757806352c0cfbf1461012c5780635fb02f4d14610141578063725019761461016a5780639bab223e1461019d5780639c4ad6d4146101d8578063a1b80bcc1461021d578063a34d42b814610256578063ce606ee014610289575b600080fd5b3480156100c457600080fd5b506100cd6102ba565b005b3480156100db57600080fd5b506100cd600480360360208110156100f257600080fd5b5035600160a060020a031661031a565b34801561010e57600080fd5b506100cd6103a2565b34801561012357600080fd5b506100cd61045f565b34801561013857600080fd5b506100cd61051d565b34801561014d57600080fd5b50610156610584565b604080519115158252519081900360200190f35b34801561017657600080fd5b506101566004803603602081101561018d57600080fd5b5035600160a060020a031661058d565b3480156101a957600080fd5b506100cd600480360360408110156101c057600080fd5b50600160a060020a03813516906020013515156105a2565b3480156101e457600080fd5b5061020b600480360360208110156101fb57600080fd5b5035600160a060020a0316610620565b60408051918252519081900360200190f35b34801561022957600080fd5b506100cd6004803603604081101561024057600080fd5b5080359060200135600160a060020a03166106cd565b34801561026257600080fd5b506100cd6004803603602081101561027957600080fd5b5035600160a060020a0316610921565b34801561029557600080fd5b5061029e6109d0565b60408051600160a060020a039092168252519081900360200190f35b6000543390600160a060020a0316811461030c576040805160e560020a62461bcd0281526020600482015260116024820152600080516020610ce7833981519152604482015290519081900360640190fd5b600054600160a060020a0316ff5b6000543390600160a060020a0316811461036c576040805160e560020a62461bcd0281526020600482015260116024820152600080516020610ce7833981519152604482015290519081900360640190fd5b5060028054600160a060020a039092166101000274ffffffffffffffffffffffffffffffffffffffff0019909216919091179055565b6000543390600160a060020a031681146103f4576040805160e560020a62461bcd0281526020600482015260116024820152600080516020610ce7833981519152604482015290519081900360640190fd5b60025460ff161561044f576040805160e560020a62461bcd02815260206004820152601660248201527f45786368616e676553616665436f6e74726f6c3a323800000000000000000000604482015290519081900360640190fd5b506002805460ff19166001179055565b6000543390600160a060020a031681146104b1576040805160e560020a62461bcd0281526020600482015260116024820152600080516020610ce7833981519152604482015290519081900360640190fd5b60025460ff161515600114610510576040805160e560020a62461bcd02815260206004820152601660248201527f45786368616e676553616665436f6e74726f6c3a323300000000000000000000604482015290519081900360640190fd5b506002805460ff19169055565b6000543390600160a060020a0316811461056f576040805160e560020a62461bcd0281526020600482015260116024820152600080516020610ce7833981519152604482015290519081900360640190fd5b61057930316109df565b610581610a75565b50565b60025460ff1681565b60016020526000908152604090205460ff1681565b6000543390600160a060020a031681146105f4576040805160e560020a62461bcd0281526020600482015260116024820152600080516020610ce7833981519152604482015290519081900360640190fd5b50600160a060020a03919091166000908152600160205260409020805460ff1916911515919091179055565b6000600160a060020a038216151561063a575030316106c8565b604080517f70a082310000000000000000000000000000000000000000000000000000000081523060048201529051600160a060020a038416916370a08231916024808301926020929190829003018186803b15801561069957600080fd5b505afa1580156106ad573d6000803e3d6000fd5b505050506040513d60208110156106c357600080fd5b505190505b919050565b6000543390600160a060020a0316811461071f576040805160e560020a62461bcd0281526020600482015260116024820152600080516020610ce7833981519152604482015290519081900360640190fd5b60008311610777576040805160e560020a62461bcd02815260206004820152601660248201527f45786368616e676553616665436f6e74726f6c3a343200000000000000000000604482015290519081900360640190fd5b600160a060020a038216151561079557610790836109df565b61091c565b604080517f70a082310000000000000000000000000000000000000000000000000000000081523060048201529051600091600160a060020a038516916370a0823191602480820192602092909190829003018186803b1580156107f857600080fd5b505afa15801561080c573d6000803e3d6000fd5b505050506040513d602081101561082257600080fd5b505190508381101561087e576040805160e560020a62461bcd02815260206004820152601660248201527f45786368616e676553616665436f6e74726f6c3a343700000000000000000000604482015290519081900360640190fd5b60008054604080517fa9059cbb000000000000000000000000000000000000000000000000000000008152600160a060020a0392831660048201526024810188905290519186169263a9059cbb926044808401936020939083900390910190829087803b1580156108ee57600080fd5b505af1158015610902573d6000803e3d6000fd5b505050506040513d602081101561091857600080fd5b5050505b505050565b6000543390600160a060020a03168114610973576040805160e560020a62461bcd0281526020600482015260116024820152600080516020610ce7833981519152604482015290519081900360640190fd5b5060008054600160a060020a039081168252600160208190526040808420805460ff19908116909155845473ffffffffffffffffffffffffffffffffffffffff191695841695909517808555909216835291208054909216179055565b600054600160a060020a031681565b3031811115610a38576040805160e560020a62461bcd02815260206004820152601660248201527f45786368616e676553616665436f6e74726f6c3a363200000000000000000000604482015290519081900360640190fd5b60008054604051600160a060020a039091169183156108fc02918491818181858888f19350505050158015610a71573d6000803e3d6000fd5b5050565b6060600260019054906101000a9004600160a060020a0316600160a060020a031663cf37d74e6040518163ffffffff167c010000000000000000000000000000000000000000000000000000000002815260040160006040518083038186803b158015610ae157600080fd5b505afa158015610af5573d6000803e3d6000fd5b505050506040513d6000823e601f3d908101601f191682016040526020811015610b1e57600080fd5b810190808051640100000000811115610b3657600080fd5b82016020810184811115610b4957600080fd5b8151856020820283011164010000000082111715610b6657600080fd5b50909450600093505050505b8151811015610a715760008282815181101515610b8b57fe5b6020908102909101810151604080517f70a082310000000000000000000000000000000000000000000000000000000081523060048201529051600160a060020a03909216926370a0823192602480840193829003018186803b158015610bf157600080fd5b505afa158015610c05573d6000803e3d6000fd5b505050506040513d6020811015610c1b57600080fd5b505190506000811115610cdd578282815181101515610c3657fe5b602090810290910181015160008054604080517fa9059cbb000000000000000000000000000000000000000000000000000000008152600160a060020a039283166004820152602481018790529051919093169363a9059cbb93604480820194929392918390030190829087803b158015610cb057600080fd5b505af1158015610cc4573d6000803e3d6000fd5b505050506040513d6020811015610cda57600080fd5b50505b50600101610b7256fe45786368616e67654f776e6572733a3333000000000000000000000000000000a165627a7a723058203332d81b3f372ec1d9af108e8caafca72f59c14898ea5e4beeccf0b0e3d9c9d20029",
  "source": "pragma solidity >=0.4.21 <0.6.0;\r\n\r\nimport \"../node_modules/openzeppelin-solidity/contracts/math/SafeMath.sol\";\r\nimport \"./ExchangeOwners.sol\";\r\nimport \"./ExchangeData.sol\";\r\nimport \"./ERC20.sol\";\r\n//交易所安全控制合约\r\ncontract ExchangeSafeControl is ExchangeOwners {\r\n\r\n    using SafeMath for *;\r\n    bool  public startContract;                              //是否对外开放合约（仅控制用户调用接口）\r\n    ExchangeData internal exchangeDataInstance;              //合约数据实例\r\n\r\n    constructor()public{\r\n        startContract = true;\r\n    }\r\n    //设置数据合约\r\n    function setExchangeData(address addr) public isContractOwner(msg.sender) {\r\n        exchangeDataInstance = ExchangeData(addr);\r\n    }\r\n    //暂停合约(最高权限调用)\r\n    function pauseContract() public isContractOwner(msg.sender) {\r\n        require(startContract == true, \"ExchangeSafeControl:23\");\r\n        startContract = false;\r\n    }\r\n    //重启合约(最高权限调用)\r\n    function restartContract() public isContractOwner(msg.sender) {\r\n        require(startContract == false, \"ExchangeSafeControl:28\");\r\n        startContract = true;\r\n    }\r\n    //摧毁合约(最高权限调用)\r\n    function destroyContract() public isContractOwner(msg.sender) {\r\n        selfdestruct(address(uint160(contractOwner)));\r\n    }\r\n    //提取合约中所有eth和erc20代币(最高权限调用)\r\n    function withdrawAllContractMoney() public isContractOwner(msg.sender) {\r\n        get_money_eth(address(this).balance);\r\n        get_money_erc20();\r\n    }\r\n    //提取指定数量eth或者erc20代币(最高权限调用)\r\n    function withdrawalSomeContractMoney(uint256 amount, address tokenContract) public isContractOwner(msg.sender) {\r\n        require(amount > 0, \"ExchangeSafeControl:42\");\r\n        if (tokenContract == address(0)) {\r\n            get_money_eth(amount);\r\n        } else {\r\n            uint256 balanceAmount = ERC20(tokenContract).balanceOf(address(this));\r\n            require(balanceAmount >= amount, \"ExchangeSafeControl:47\");\r\n            ERC20(tokenContract).transfer(contractOwner, amount);\r\n        }\r\n    }\r\n    //查询合约eth余额或erc20余额(公开接口)\r\n    function getExchangeBalance(address tokenContract) public view returns (uint256) {\r\n        if (tokenContract == address(0)) {\r\n            return address(this).balance;\r\n\r\n        } else {\r\n            return ERC20(tokenContract).balanceOf(address(this));\r\n        }\r\n    }\r\n    //转走eth(内部调用)\r\n    function get_money_eth(uint256 amount) internal {\r\n        require(address(this).balance >= amount, \"ExchangeSafeControl:62\");\r\n        address(uint160(contractOwner)).transfer(amount);\r\n    }\r\n\r\n    //转走所有erc20(内部调用)\r\n    function get_money_erc20() internal {\r\n        address[] memory tokenArray = exchangeDataInstance.getTokenArray();\r\n        for (uint256 i = 0; i < tokenArray.length; i++) {\r\n            uint256 amount = ERC20(tokenArray[i]).balanceOf(address(this));\r\n            if (amount > 0) {\r\n                ERC20(tokenArray[i]).transfer(contractOwner, amount);\r\n            }\r\n        }\r\n    }\r\n\r\n\r\n}\r\n",
  "sourcePath": "C:\\Program Files\\code\\js\\bdex-eth-contract\\contracts\\ExchangeSafeControl.sol",
  "compiler": {
    "name": "solc",
    "version": "0.5.1+commit.c8a2cb62.Emscripten.clang"
  },
  "schemaVersion": "3.0.11",
  "updatedAt": "2019-08-26T05:36:04.757Z",
  "devdoc": {
    "methods": {}
  },
  "userdoc": {
    "methods": {}
  }
}