{
  "contractName": "Exchange",
  "abi": [
    {
      "constant": false,
      "inputs": [],
      "name": "destroyContract",
      "outputs": [],
      "payable": false,
      "stateMutability": "nonpayable",
      "type": "function"
    },
    {
      "constant": false,
      "inputs": [
        {
          "name": "addr",
          "type": "address"
        }
      ],
      "name": "setExchangeData",
      "outputs": [],
      "payable": false,
      "stateMutability": "nonpayable",
      "type": "function"
    },
    {
      "constant": false,
      "inputs": [],
      "name": "restartContract",
      "outputs": [],
      "payable": false,
      "stateMutability": "nonpayable",
      "type": "function"
    },
    {
      "constant": false,
      "inputs": [],
      "name": "pauseContract",
      "outputs": [],
      "payable": false,
      "stateMutability": "nonpayable",
      "type": "function"
    },
    {
      "constant": false,
      "inputs": [],
      "name": "withdrawAllContractMoney",
      "outputs": [],
      "payable": false,
      "stateMutability": "nonpayable",
      "type": "function"
    },
    {
      "constant": true,
      "inputs": [],
      "name": "startContract",
      "outputs": [
        {
          "name": "",
          "type": "bool"
        }
      ],
      "payable": false,
      "stateMutability": "view",
      "type": "function"
    },
    {
      "constant": true,
      "inputs": [
        {
          "name": "",
          "type": "address"
        }
      ],
      "name": "accessAllowed",
      "outputs": [
        {
          "name": "",
          "type": "bool"
        }
      ],
      "payable": false,
      "stateMutability": "view",
      "type": "function"
    },
    {
      "constant": false,
      "inputs": [
        {
          "name": "owner",
          "type": "address"
        },
        {
          "name": "access",
          "type": "bool"
        }
      ],
      "name": "setAccessAllow",
      "outputs": [],
      "payable": false,
      "stateMutability": "nonpayable",
      "type": "function"
    },
    {
      "constant": true,
      "inputs": [
        {
          "name": "tokenContract",
          "type": "address"
        }
      ],
      "name": "getExchangeBalance",
      "outputs": [
        {
          "name": "",
          "type": "uint256"
        }
      ],
      "payable": false,
      "stateMutability": "view",
      "type": "function"
    },
    {
      "constant": false,
      "inputs": [
        {
          "name": "amount",
          "type": "uint256"
        },
        {
          "name": "tokenContract",
          "type": "address"
        }
      ],
      "name": "withdrawalSomeContractMoney",
      "outputs": [],
      "payable": false,
      "stateMutability": "nonpayable",
      "type": "function"
    },
    {
      "constant": false,
      "inputs": [
        {
          "name": "newAddr",
          "type": "address"
        }
      ],
      "name": "setContractOwner",
      "outputs": [],
      "payable": false,
      "stateMutability": "nonpayable",
      "type": "function"
    },
    {
      "constant": true,
      "inputs": [],
      "name": "contractOwner",
      "outputs": [
        {
          "name": "",
          "type": "address"
        }
      ],
      "payable": false,
      "stateMutability": "view",
      "type": "function"
    },
    {
      "constant": false,
      "inputs": [
        {
          "name": "orderId",
          "type": "uint64"
        },
        {
          "name": "userReceiver",
          "type": "string"
        },
        {
          "name": "tradeType",
          "type": "bool"
        },
        {
          "name": "sellAmount",
          "type": "uint256"
        },
        {
          "name": "sellContract",
          "type": "address"
        },
        {
          "name": "price",
          "type": "uint256"
        },
        {
          "name": "buyContract",
          "type": "address"
        },
        {
          "name": "market_code",
          "type": "uint64"
        }
      ],
      "name": "depositsOrder",
      "outputs": [],
      "payable": true,
      "stateMutability": "payable",
      "type": "function"
    },
    {
      "constant": false,
      "inputs": [
        {
          "name": "orderId",
          "type": "uint64"
        }
      ],
      "name": "withdrawal",
      "outputs": [],
      "payable": false,
      "stateMutability": "nonpayable",
      "type": "function"
    },
    {
      "constant": false,
      "inputs": [
        {
          "name": "orderId",
          "type": "uint64"
        },
        {
          "name": "status",
          "type": "bool"
        }
      ],
      "name": "updateOrderState",
      "outputs": [],
      "payable": false,
      "stateMutability": "nonpayable",
      "type": "function"
    },
    {
      "constant": false,
      "inputs": [
        {
          "name": "orderId",
          "type": "uint64"
        },
        {
          "name": "to",
          "type": "address"
        },
        {
          "name": "sellAmount",
          "type": "uint256"
        },
        {
          "name": "buyAmount",
          "type": "uint256"
        },
        {
          "name": "feeAmount",
          "type": "uint256"
        }
      ],
      "name": "submit",
      "outputs": [],
      "payable": false,
      "stateMutability": "nonpayable",
      "type": "function"
    },
    {
      "constant": false,
      "inputs": [
        {
          "name": "orderId",
          "type": "uint64"
        }
      ],
      "name": "rollBackOrderByOrderId",
      "outputs": [],
      "payable": false,
      "stateMutability": "nonpayable",
      "type": "function"
    },
    {
      "constant": false,
      "inputs": [
        {
          "name": "orderId",
          "type": "uint64"
        }
      ],
      "name": "TransferMoney",
      "outputs": [],
      "payable": false,
      "stateMutability": "nonpayable",
      "type": "function"
    }
  ],
  "bytecode": "0x6080604090815260008054600160a060020a0319163317808255600160a060020a0316815260016020819052919020805460ff199081168317909155600280549091169091179055611c40806100566000396000f3fe6080604052600436106100dc5760e060020a6000350463092a5cce81146100e1578063094fe57a146100f857806330a52d5b1461012b578063439766ce1461014057806352c0cfbf146101555780635f8616a41461016a5780635fb02f4d1461019e578063657bb4a9146101c757806365f1d0ad146102b457806372501976146102e857806377bf81261461031b57806393d45d50146103575780639bab223e1461038b5780639c4ad6d4146103c6578063a1b80bcc1461040b578063a34d42b814610444578063ce606ee014610477578063e78909c1146104a8575b600080fd5b3480156100ed57600080fd5b506100f66104fd565b005b34801561010457600080fd5b506100f66004803603602081101561011b57600080fd5b5035600160a060020a031661055d565b34801561013757600080fd5b506100f66105e5565b34801561014c57600080fd5b506100f66106a2565b34801561016157600080fd5b506100f6610760565b34801561017657600080fd5b506100f66004803603602081101561018d57600080fd5b503567ffffffffffffffff166107c7565b3480156101aa57600080fd5b506101b36108ad565b604080519115158252519081900360200190f35b6100f660048036036101008110156101de57600080fd5b67ffffffffffffffff823516919081019060408101602082013564010000000081111561020a57600080fd5b82018360208201111561021c57600080fd5b8035906020019184600183028401116401000000008311171561023e57600080fd5b91908080601f0160208091040260200160405190810160405280939291908181526020018383808284376000920191909152509295505050508035151591506020810135906040810135600160a060020a03908116916060810135916080820135169060a0013567ffffffffffffffff166108b6565b3480156102c057600080fd5b506100f6600480360360208110156102d757600080fd5b503567ffffffffffffffff16610dbc565b3480156102f457600080fd5b506101b36004803603602081101561030b57600080fd5b5035600160a060020a031661100a565b34801561032757600080fd5b506100f66004803603604081101561033e57600080fd5b5067ffffffffffffffff8135169060200135151561101f565b34801561036357600080fd5b506100f66004803603602081101561037a57600080fd5b503567ffffffffffffffff1661110e565b34801561039757600080fd5b506100f6600480360360408110156103ae57600080fd5b50600160a060020a03813516906020013515156112fc565b3480156103d257600080fd5b506103f9600480360360208110156103e957600080fd5b5035600160a060020a031661137a565b60408051918252519081900360200190f35b34801561041757600080fd5b506100f66004803603604081101561042e57600080fd5b5080359060200135600160a060020a0316611427565b34801561045057600080fd5b506100f66004803603602081101561046757600080fd5b5035600160a060020a031661164d565b34801561048357600080fd5b5061048c6116fc565b60408051600160a060020a039092168252519081900360200190f35b3480156104b457600080fd5b506100f6600480360360a08110156104cb57600080fd5b5067ffffffffffffffff81351690600160a060020a03602082013516906040810135906060810135906080013561170b565b6000543390600160a060020a0316811461054f576040805160e560020a62461bcd0281526020600482015260116024820152600080516020611bf5833981519152604482015290519081900360640190fd5b600054600160a060020a0316ff5b6000543390600160a060020a031681146105af576040805160e560020a62461bcd0281526020600482015260116024820152600080516020611bf5833981519152604482015290519081900360640190fd5b5060028054600160a060020a039092166101000274ffffffffffffffffffffffffffffffffffffffff0019909216919091179055565b6000543390600160a060020a03168114610637576040805160e560020a62461bcd0281526020600482015260116024820152600080516020611bf5833981519152604482015290519081900360640190fd5b60025460ff1615610692576040805160e560020a62461bcd02815260206004820152601660248201527f45786368616e676553616665436f6e74726f6c3a323800000000000000000000604482015290519081900360640190fd5b506002805460ff19166001179055565b6000543390600160a060020a031681146106f4576040805160e560020a62461bcd0281526020600482015260116024820152600080516020611bf5833981519152604482015290519081900360640190fd5b60025460ff161515600114610753576040805160e560020a62461bcd02815260206004820152601660248201527f45786368616e676553616665436f6e74726f6c3a323300000000000000000000604482015290519081900360640190fd5b506002805460ff19169055565b6000543390600160a060020a031681146107b2576040805160e560020a62461bcd0281526020600482015260116024820152600080516020611bf5833981519152604482015290519081900360640190fd5b6107bc30316118e6565b6107c461197c565b50565b3360008181526001602052604090205460ff16151561081e576040805160e560020a62461bcd0281526020600482015260116024820152600080516020611bd5833981519152604482015290519081900360640190fd5b600254604080517f1638550b00000000000000000000000000000000000000000000000000000000815267ffffffffffffffff851660048201529051610100909204600160a060020a031691631638550b9160248082019260009290919082900301818387803b15801561089157600080fd5b505af11580156108a5573d6000803e3d6000fd5b505050505050565b60025460ff1681565b60025460ff161515610912576040805160e560020a62461bcd02815260206004820152600b60248201527f45786368616e67653a3139000000000000000000000000000000000000000000604482015290519081900360640190fd5b8651151561096a576040805160e560020a62461bcd02815260206004820152600b60248201527f45786368616e67653a3230000000000000000000000000000000000000000000604482015290519081900360640190fd5b600085116109c2576040805160e560020a62461bcd02815260206004820152600b60248201527f45786368616e67653a3231000000000000000000000000000000000000000000604482015290519081900360640190fd5b60008311610a1a576040805160e560020a62461bcd02815260206004820152600b60248201527f45786368616e67653a3232000000000000000000000000000000000000000000604482015290519081900360640190fd5b67ffffffffffffffff81161515610a7b576040805160e560020a62461bcd02815260206004820152600b60248201527f45786368616e67653a3233000000000000000000000000000000000000000000604482015290519081900360640190fd5b600160a060020a0384161515610ae85734851115610ae3576040805160e560020a62461bcd02815260206004820152600b60248201527f45786368616e67653a3235000000000000000000000000000000000000000000604482015290519081900360640190fd5b610c6d565b604080517fdd62ed3e00000000000000000000000000000000000000000000000000000000815233600482015230602482015290518691600160a060020a0387169163dd62ed3e91604480820192602092909190829003018186803b158015610b5057600080fd5b505afa158015610b64573d6000803e3d6000fd5b505050506040513d6020811015610b7a57600080fd5b50511015610bd2576040805160e560020a62461bcd02815260206004820152600b60248201527f45786368616e67653a3237000000000000000000000000000000000000000000604482015290519081900360640190fd5b604080517f23b872dd000000000000000000000000000000000000000000000000000000008152336004820152306024820152604481018790529051600160a060020a038616916323b872dd9160648083019260209291908290030181600087803b158015610c4057600080fd5b505af1158015610c54573d6000803e3d6000fd5b505050506040513d6020811015610c6a57600080fd5b50505b6002546040517fbda3d1b100000000000000000000000000000000000000000000000000000000815267ffffffffffffffff8a81166004830190815233602484018190528a15156064850152608484018a9052600160a060020a0389811660a486015260c4850189905287811660e4860152928616610104850152610120604485019081528c516101248601528c516101009096049093169463bda3d1b1948e9492938e938e938e938e938e938e938e93610144019060208b019080838360005b83811015610d46578181015183820152602001610d2e565b50505050905090810190601f168015610d735780820380516001836020036101000a031916815260200191505b509a5050505050505050505050600060405180830381600087803b158015610d9a57600080fd5b505af1158015610dae573d6000803e3d6000fd5b505050505050505050505050565b60025460ff161515610e18576040805160e560020a62461bcd02815260206004820152600b60248201527f45786368616e67653a3337000000000000000000000000000000000000000000604482015290519081900360640190fd5b6000806000600260019054906101000a9004600160a060020a0316600160a060020a0316631712046f856040518263ffffffff1660e060020a028152600401808267ffffffffffffffff1667ffffffffffffffff168152602001915050606060405180830381600087803b158015610e8f57600080fd5b505af1158015610ea3573d6000803e3d6000fd5b505050506040513d6060811015610eb957600080fd5b50805160208201516040909201519094509092509050600160a060020a0382163314610f2f576040805160e560020a62461bcd02815260206004820152600b60248201527f45786368616e67653a3339000000000000000000000000000000000000000000604482015290519081900360640190fd5b600160a060020a0381161515610f7257604051339084156108fc029085906000818181858888f19350505050158015610f6c573d6000803e3d6000fd5b50611004565b604080517fa9059cbb000000000000000000000000000000000000000000000000000000008152336004820152602481018590529051600160a060020a0383169163a9059cbb9160448083019260209291908290030181600087803b158015610fda57600080fd5b505af1158015610fee573d6000803e3d6000fd5b505050506040513d60208110156108a557600080fd5b50505050565b60016020526000908152604090205460ff1681565b3360008181526001602052604090205460ff161515611076576040805160e560020a62461bcd0281526020600482015260116024820152600080516020611bd5833981519152604482015290519081900360640190fd5b600254604080517ff2cf5a1f00000000000000000000000000000000000000000000000000000000815267ffffffffffffffff8616600482015284151560248201529051610100909204600160a060020a03169163f2cf5a1f9160448082019260009290919082900301818387803b1580156110f157600080fd5b505af1158015611105573d6000803e3d6000fd5b50505050505050565b3360008181526001602052604090205460ff161515611165576040805160e560020a62461bcd0281526020600482015260116024820152600080516020611bd5833981519152604482015290519081900360640190fd5b6000806000600260019054906101000a9004600160a060020a0316600160a060020a0316635a7705b7866040518263ffffffff1660e060020a028152600401808267ffffffffffffffff1667ffffffffffffffff168152602001915050606060405180830381600087803b1580156111dc57600080fd5b505af11580156111f0573d6000803e3d6000fd5b505050506040513d606081101561120657600080fd5b50805160208201516040909201519094509092509050600160a060020a038116151561126857604051600160a060020a0383169084156108fc029085906000818181858888f19350505050158015611262573d6000803e3d6000fd5b506112f5565b80600160a060020a031663a9059cbb83856040518363ffffffff1660e060020a0281526004018083600160a060020a0316600160a060020a0316815260200182815260200192505050602060405180830381600087803b1580156112cb57600080fd5b505af11580156112df573d6000803e3d6000fd5b505050506040513d602081101561110557600080fd5b5050505050565b6000543390600160a060020a0316811461134e576040805160e560020a62461bcd0281526020600482015260116024820152600080516020611bf5833981519152604482015290519081900360640190fd5b50600160a060020a03919091166000908152600160205260409020805460ff1916911515919091179055565b6000600160a060020a038216151561139457503031611422565b604080517f70a082310000000000000000000000000000000000000000000000000000000081523060048201529051600160a060020a038416916370a08231916024808301926020929190829003018186803b1580156113f357600080fd5b505afa158015611407573d6000803e3d6000fd5b505050506040513d602081101561141d57600080fd5b505190505b919050565b6000543390600160a060020a03168114611479576040805160e560020a62461bcd0281526020600482015260116024820152600080516020611bf5833981519152604482015290519081900360640190fd5b600083116114d1576040805160e560020a62461bcd02815260206004820152601660248201527f45786368616e676553616665436f6e74726f6c3a343200000000000000000000604482015290519081900360640190fd5b600160a060020a03821615156114ef576114ea836118e6565b611648565b604080517f70a082310000000000000000000000000000000000000000000000000000000081523060048201529051600091600160a060020a038516916370a0823191602480820192602092909190829003018186803b15801561155257600080fd5b505afa158015611566573d6000803e3d6000fd5b505050506040513d602081101561157c57600080fd5b50519050838110156115d8576040805160e560020a62461bcd02815260206004820152601660248201527f45786368616e676553616665436f6e74726f6c3a343700000000000000000000604482015290519081900360640190fd5b60008054604080517fa9059cbb000000000000000000000000000000000000000000000000000000008152600160a060020a0392831660048201526024810188905290519186169263a9059cbb926044808401936020939083900390910190829087803b158015610fda57600080fd5b505050565b6000543390600160a060020a0316811461169f576040805160e560020a62461bcd0281526020600482015260116024820152600080516020611bf5833981519152604482015290519081900360640190fd5b5060008054600160a060020a039081168252600160208190526040808420805460ff19908116909155845473ffffffffffffffffffffffffffffffffffffffff191695841695909517808555909216835291208054909216179055565b600054600160a060020a031681565b3360008181526001602052604090205460ff161515611762576040805160e560020a62461bcd0281526020600482015260116024820152600080516020611bd5833981519152604482015290519081900360640190fd5b600160a060020a03851615156117c2576040805160e560020a62461bcd02815260206004820152600b60248201527f45786368616e67653a3538000000000000000000000000000000000000000000604482015290519081900360640190fd5b6000841180156117d25750600083115b80156117de5750600082115b1515611834576040805160e560020a62461bcd02815260206004820152600b60248201527f45786368616e67653a3539000000000000000000000000000000000000000000604482015290519081900360640190fd5b600254604080517f41e4be5400000000000000000000000000000000000000000000000000000000815267ffffffffffffffff89166004820152600160a060020a0388811660248301526044820188905260648201879052608482018690529151610100909304909116916341e4be549160a48082019260009290919082900301818387803b1580156118c657600080fd5b505af11580156118da573d6000803e3d6000fd5b50505050505050505050565b303181111561193f576040805160e560020a62461bcd02815260206004820152601660248201527f45786368616e676553616665436f6e74726f6c3a363200000000000000000000604482015290519081900360640190fd5b60008054604051600160a060020a039091169183156108fc02918491818181858888f19350505050158015611978573d6000803e3d6000fd5b5050565b6060600260019054906101000a9004600160a060020a0316600160a060020a031663cf37d74e6040518163ffffffff1660e060020a02815260040160006040518083038186803b1580156119cf57600080fd5b505afa1580156119e3573d6000803e3d6000fd5b505050506040513d6000823e601f3d908101601f191682016040526020811015611a0c57600080fd5b810190808051640100000000811115611a2457600080fd5b82016020810184811115611a3757600080fd5b8151856020820283011164010000000082111715611a5457600080fd5b50909450600093505050505b81518110156119785760008282815181101515611a7957fe5b6020908102909101810151604080517f70a082310000000000000000000000000000000000000000000000000000000081523060048201529051600160a060020a03909216926370a0823192602480840193829003018186803b158015611adf57600080fd5b505afa158015611af3573d6000803e3d6000fd5b505050506040513d6020811015611b0957600080fd5b505190506000811115611bcb578282815181101515611b2457fe5b602090810290910181015160008054604080517fa9059cbb000000000000000000000000000000000000000000000000000000008152600160a060020a039283166004820152602481018790529051919093169363a9059cbb93604480820194929392918390030190829087803b158015611b9e57600080fd5b505af1158015611bb2573d6000803e3d6000fd5b505050506040513d6020811015611bc857600080fd5b50505b50600101611a6056fe45786368616e67654f776e6572733a333900000000000000000000000000000045786368616e67654f776e6572733a3333000000000000000000000000000000a165627a7a72305820f5e22aee4a260af9842b545e6dc5f5b0344420035e663f2b2f85d4ef0129107d0029",
  "source": "pragma solidity >=0.4.21 <0.6.0;\r\n\r\nimport \"./ExchangeSafeControl.sol\";\r\n\r\n//\r\ncontract Exchange is ExchangeSafeControl {\r\n    //erc20\r\n    function depositsOrder(\r\n        uint64 orderId,                       //id\r\n        string  memory userReceiver,          //\r\n        bool tradeType,                      //\r\n        uint256 sellAmount,                  //\r\n        address sellContract,              //\r\n        uint256 price,                     //\r\n        address buyContract,             //\r\n        uint64 market_code)           //\r\n    public payable\r\n    {\r\n        require(startContract, \"Exchange:19\");\r\n        require(bytes(userReceiver).length != 0, \"Exchange:20\");\r\n        require(sellAmount > 0, \"Exchange:21\");\r\n        require(price > 0, \"Exchange:22\");\r\n        require(market_code != 0, \"Exchange:23\");\r\n        if (sellContract == address(0)) {\r\n            require(msg.value >= sellAmount, \"Exchange:25\");\r\n        } else {\r\n            require(ERC20(sellContract).allowance(msg.sender, address(this)) >= sellAmount, \"Exchange:27\");\r\n            ERC20(sellContract).transferFrom(msg.sender, address(this), sellAmount);\r\n        }\r\n        exchangeDataInstance.createOrders(orderId, msg.sender, userReceiver, tradeType, sellAmount, sellContract, price, buyContract, market_code);\r\n    }\r\n\r\n    //\r\n    function withdrawal(uint64 orderId)\r\n    public\r\n    {\r\n        require(startContract, \"Exchange:37\");\r\n        (uint256 amount,address userAddress,address tokenContract) = exchangeDataInstance.withdrawOrder(orderId);\r\n        require(userAddress == msg.sender, \"Exchange:39\");\r\n        if (tokenContract == address(0)) {\r\n            msg.sender.transfer(amount);\r\n        } else {\r\n            ERC20(tokenContract).transfer(msg.sender, amount);\r\n        }\r\n    }\r\n    //()\r\n    function updateOrderState(uint64 orderId, bool status)\r\n    public\r\n    isOwners(msg.sender)\r\n    {\r\n        exchangeDataInstance.changeWithdrawStatus(orderId, status);\r\n    }\r\n    //()\r\n    function submit(uint64 orderId, address to, uint256 sellAmount, uint256 buyAmount, uint256 feeAmount)\r\n    public\r\n    isOwners(msg.sender)\r\n    {\r\n        require(to != address(0), \"Exchange:58\");\r\n        require(sellAmount > 0 && buyAmount > 0 && feeAmount > 0, \"Exchange:59\");\r\n        exchangeDataInstance.addSubmit(orderId, to, sellAmount, buyAmount, feeAmount);\r\n    }\r\n    //()\r\n    function rollBackOrderByOrderId(uint64 orderId)\r\n    public\r\n    isOwners(msg.sender)\r\n    {\r\n        exchangeDataInstance.rollbackSubmit(orderId);\r\n    }\r\n    //()\r\n    function TransferMoney(uint64 orderId)\r\n    public isOwners(msg.sender)\r\n    {\r\n        (uint256 sellAmount,address to,address tokenContract) = exchangeDataInstance.getTransferInfo(orderId);\r\n        if (tokenContract == address(0)) {\r\n            address(uint160(to)).transfer(sellAmount);\r\n        } else {\r\n            ERC20(tokenContract).transfer(to, sellAmount);\r\n        }\r\n    }\r\n}\r\n",
  "sourcePath": "C:/Program Files/code/js/bdex-eth-contract/contracts/Exchange.sol",
  "compiler": {
    "name": "solc",
    "version": "0.5.1+commit.c8a2cb62.Emscripten.clang"
  },
  "schemaVersion": "3.0.11",
  "updatedAt": "2019-08-26T05:40:00.605Z",
  "devdoc": {
    "methods": {}
  },
  "userdoc": {
    "methods": {}
  }
}