{
  "contractName": "TestToken",
  "abi": [
    {
      "constant": true,
      "inputs": [],
      "name": "decimals",
      "outputs": [
        {
          "name": "",
          "type": "uint8"
        }
      ],
      "payable": false,
      "stateMutability": "view",
      "type": "function"
    },
    {
      "constant": true,
      "inputs": [],
      "name": "symbol",
      "outputs": [
        {
          "name": "",
          "type": "string"
        }
      ],
      "payable": false,
      "stateMutability": "view",
      "type": "function"
    },
    {
      "inputs": [
        {
          "name": "decimal",
          "type": "uint8"
        },
        {
          "name": "amount",
          "type": "uint256"
        },
        {
          "name": "name",
          "type": "string"
        }
      ],
      "payable": false,
      "stateMutability": "nonpayable",
      "type": "constructor"
    },
    {
      "anonymous": false,
      "inputs": [
        {
          "indexed": true,
          "name": "from",
          "type": "address"
        },
        {
          "indexed": true,
          "name": "to",
          "type": "address"
        },
        {
          "indexed": false,
          "name": "value",
          "type": "uint256"
        }
      ],
      "name": "Transfer",
      "type": "event"
    },
    {
      "anonymous": false,
      "inputs": [
        {
          "indexed": true,
          "name": "owner",
          "type": "address"
        },
        {
          "indexed": true,
          "name": "spender",
          "type": "address"
        },
        {
          "indexed": false,
          "name": "value",
          "type": "uint256"
        }
      ],
      "name": "Approval",
      "type": "event"
    },
    {
      "constant": true,
      "inputs": [],
      "name": "totalSupply",
      "outputs": [
        {
          "name": "",
          "type": "uint256"
        }
      ],
      "payable": false,
      "stateMutability": "view",
      "type": "function"
    },
    {
      "constant": true,
      "inputs": [
        {
          "name": "owner",
          "type": "address"
        }
      ],
      "name": "balanceOf",
      "outputs": [
        {
          "name": "",
          "type": "uint256"
        }
      ],
      "payable": false,
      "stateMutability": "view",
      "type": "function"
    },
    {
      "constant": true,
      "inputs": [
        {
          "name": "owner",
          "type": "address"
        },
        {
          "name": "spender",
          "type": "address"
        }
      ],
      "name": "allowance",
      "outputs": [
        {
          "name": "",
          "type": "uint256"
        }
      ],
      "payable": false,
      "stateMutability": "view",
      "type": "function"
    },
    {
      "constant": false,
      "inputs": [
        {
          "name": "to",
          "type": "address"
        },
        {
          "name": "value",
          "type": "uint256"
        }
      ],
      "name": "transfer",
      "outputs": [
        {
          "name": "",
          "type": "bool"
        }
      ],
      "payable": false,
      "stateMutability": "nonpayable",
      "type": "function"
    },
    {
      "constant": false,
      "inputs": [
        {
          "name": "spender",
          "type": "address"
        },
        {
          "name": "value",
          "type": "uint256"
        }
      ],
      "name": "approve",
      "outputs": [
        {
          "name": "",
          "type": "bool"
        }
      ],
      "payable": false,
      "stateMutability": "nonpayable",
      "type": "function"
    },
    {
      "constant": false,
      "inputs": [
        {
          "name": "from",
          "type": "address"
        },
        {
          "name": "to",
          "type": "address"
        },
        {
          "name": "value",
          "type": "uint256"
        }
      ],
      "name": "transferFrom",
      "outputs": [
        {
          "name": "",
          "type": "bool"
        }
      ],
      "payable": false,
      "stateMutability": "nonpayable",
      "type": "function"
    },
    {
      "constant": false,
      "inputs": [
        {
          "name": "value",
          "type": "uint256"
        }
      ],
      "name": "addMoney",
      "outputs": [],
      "payable": false,
      "stateMutability": "nonpayable",
      "type": "function"
    }
  ],
  "bytecode": "0x608060405234801561001057600080fd5b506040516109673803806109678339810180604052606081101561003357600080fd5b815160208301516040840180519294919382019264010000000081111561005957600080fd5b8201602081018481111561006c57600080fd5b815164010000000081118282018710171561008657600080fd5b505060058054600160a060020a031916331790556000805460ff881660ff1990911617905580519093506100c392506001915060208401906101bc565b5060006004556100e43360ff8516600a0a84026401000000006100ec810204565b505050610257565b600160a060020a038216151561010157600080fd5b60045461011b90826401000000006106bf6101a682021704565b600455600160a060020a03821660009081526002602052604090205461014e90826401000000006106bf6101a682021704565b600160a060020a03831660008181526002602090815260408083209490945583518581529351929391927fddf252ad1be2c89b69c2b068fc378daa952ba7f163c4a11628f55a4df523b3ef9281900390910190a35050565b6000828201838110156101b557fe5b9392505050565b828054600181600116156101000203166002900490600052602060002090601f016020900481019282601f106101fd57805160ff191683800117855561022a565b8280016001018555821561022a579182015b8281111561022a57825182559160200191906001019061020f565b5061023692915061023a565b5090565b61025491905b808211156102365760008155600101610240565b90565b610701806102666000396000f3fe608060405260043610610092577c01000000000000000000000000000000000000000000000000000000006000350463095ea7b3811461009757806318160ddd146100e457806323b872dd1461010b578063313ce5671461014e57806370a082311461017957806395d89b41146101ac578063a9059cbb14610236578063d0bc1a881461026f578063dd62ed3e1461029b575b600080fd5b3480156100a357600080fd5b506100d0600480360360408110156100ba57600080fd5b50600160a060020a0381351690602001356102d6565b604080519115158252519081900360200190f35b3480156100f057600080fd5b506100f9610354565b60408051918252519081900360200190f35b34801561011757600080fd5b506100d06004803603606081101561012e57600080fd5b50600160a060020a0381358116916020810135909116906040013561035a565b34801561015a57600080fd5b506101636103f7565b6040805160ff9092168252519081900360200190f35b34801561018557600080fd5b506100f96004803603602081101561019c57600080fd5b5035600160a060020a0316610400565b3480156101b857600080fd5b506101c161041b565b6040805160208082528351818301528351919283929083019185019080838360005b838110156101fb5781810151838201526020016101e3565b50505050905090810190601f1680156102285780820380516001836020036101000a031916815260200191505b509250505060405180910390f35b34801561024257600080fd5b506100d06004803603604081101561025957600080fd5b50600160a060020a0381351690602001356104a8565b34801561027b57600080fd5b506102996004803603602081101561029257600080fd5b50356104be565b005b3480156102a757600080fd5b506100f9600480360360408110156102be57600080fd5b50600160a060020a03813581169160200135166104e2565b6000600160a060020a03831615156102ed57600080fd5b336000818152600360209081526040808320600160a060020a03881680855290835292819020869055805186815290519293927f8c5be1e5ebec7d5bd14f71427d1e84f3dd0314c0f7b2291e5b200ac8c7c3b925929181900390910190a350600192915050565b60045490565b600160a060020a038316600090815260036020908152604080832033845290915281205482111561038a57600080fd5b600160a060020a03841660009081526003602090815260408083203384529091529020546103be908363ffffffff61050d16565b600160a060020a03851660009081526003602090815260408083203384529091529020556103ed84848461051f565b5060019392505050565b60005460ff1681565b600160a060020a031660009081526002602052604090205490565b60018054604080516020600284861615610100026000190190941693909304601f810184900484028201840190925281815292918301828280156104a05780601f10610475576101008083540402835291602001916104a0565b820191906000526020600020905b81548152906001019060200180831161048357829003601f168201915b505050505081565b60006104b533848461051f565b50600192915050565b600554600160a060020a031633146104d557600080fd5b6104df3382610613565b50565b600160a060020a03918216600090815260036020908152604080832093909416825291909152205490565b60008282111561051957fe5b50900390565b600160a060020a03831660009081526002602052604090205481111561054457600080fd5b600160a060020a038216151561055957600080fd5b600160a060020a038316600090815260026020526040902054610582908263ffffffff61050d16565b600160a060020a0380851660009081526002602052604080822093909355908416815220546105b7908263ffffffff6106bf16565b600160a060020a0380841660008181526002602090815260409182902094909455805185815290519193928716927fddf252ad1be2c89b69c2b068fc378daa952ba7f163c4a11628f55a4df523b3ef92918290030190a3505050565b600160a060020a038216151561062857600080fd5b60045461063b908263ffffffff6106bf16565b600455600160a060020a038216600090815260026020526040902054610667908263ffffffff6106bf16565b600160a060020a03831660008181526002602090815260408083209490945583518581529351929391927fddf252ad1be2c89b69c2b068fc378daa952ba7f163c4a11628f55a4df523b3ef9281900390910190a35050565b6000828201838110156106ce57fe5b939250505056fea165627a7a72305820f682ff5eae5d1d8234e217ba3c975cebe76d9e142e2600f713498a8c14084b540029",
  "source": "pragma solidity >=0.4.0 <0.7.0;\r\nlibrary SafeMath {\r\n\r\n    /**\r\n    * @dev Multiplies two numbers, throws on overflow.\r\n    */\r\n    function mul(uint256 a, uint256 b) internal pure returns (uint256) {\r\n        if (a == 0) {\r\n            return 0;\r\n        }\r\n        uint256 c = a * b;\r\n        assert(c / a == b);\r\n        return c;\r\n    }\r\n\r\n    /**\r\n    * @dev Integer division of two numbers, truncating the quotient.\r\n    */\r\n    function div(uint256 a, uint256 b) internal pure returns (uint256) {\r\n        // assert(b > 0); // Solidity automatically throws when dividing by 0\r\n        uint256 c = a / b;\r\n        // assert(a == b * c + a % b); // There is no case in which this doesn't hold\r\n        return c;\r\n    }\r\n\r\n    /**\r\n    * @dev Subtracts two numbers, throws on overflow (i.e. if subtrahend is greater than minuend).\r\n    */\r\n    function sub(uint256 a, uint256 b) internal pure returns (uint256) {\r\n        assert(b <= a);\r\n        return a - b;\r\n    }\r\n\r\n    /**\r\n    * @dev Adds two numbers, throws on overflow.\r\n    */\r\n    function add(uint256 a, uint256 b) internal pure returns (uint256) {\r\n        uint256 c = a + b;\r\n        assert(c >= a);\r\n        return c;\r\n    }\r\n}\r\n\r\n\r\ncontract ERC20 {\r\n  function totalSupply() external view returns (uint256);\r\n\r\n  function balanceOf(address who) external view returns (uint256);\r\n\r\n  function allowance(address owner, address spender)\r\n    external view returns (uint256);\r\n\r\n  function transfer(address to, uint256 value) external returns (bool);\r\n\r\n  function approve(address spender, uint256 value)\r\n    external returns (bool);\r\n\r\n  function transferFrom(address from, address to, uint256 value)\r\n    external returns (bool);\r\n\r\n  event Transfer(\r\n    address indexed from,\r\n    address indexed to,\r\n    uint256 value\r\n  );\r\n\r\n  event Approval(\r\n    address indexed owner,\r\n    address indexed spender,\r\n    uint256 value\r\n  );\r\n}\r\n\r\n\r\ncontract TestToken is ERC20 {\r\n  using SafeMath for uint256;\r\n  \r\n  uint8 public decimals;\r\n  \r\n  string public symbol;\r\n\r\n  mapping (address => uint256) private _balances;\r\n\r\n  mapping (address => mapping (address => uint256)) private _allowed;\r\n\r\n  uint256 private _totalSupply;\r\n  \r\n  address TokenOwner ;\r\n  \r\n  constructor(uint8 decimal,uint256 amount,string memory name)public{\r\n    TokenOwner=msg.sender; \r\n    decimals=decimal;\r\n    symbol =name;\r\n    _totalSupply=0;\r\n    _mint(msg.sender,amount*10**uint256(decimal));\r\n  }\r\n\r\n \r\n  function totalSupply()public view returns (uint256) {\r\n    return _totalSupply;\r\n  }\r\n\r\n \r\n  function balanceOf(address owner) public view returns (uint256) {\r\n    return _balances[owner];\r\n  }\r\n\r\n \r\n  function allowance(address owner,address spender)public view returns (uint256){\r\n    return _allowed[owner][spender];\r\n  }\r\n\r\n  \r\n  function transfer(address to, uint256 value) public returns (bool) {\r\n    _transfer(msg.sender, to, value);\r\n    return true;\r\n  }\r\n\r\n  \r\n  function approve(address spender, uint256 value) public returns (bool) {\r\n    require(spender != address(0));\r\n\r\n    _allowed[msg.sender][spender] = value;\r\n    emit Approval(msg.sender, spender, value);\r\n    return true;\r\n  }\r\n\r\n  function transferFrom(address from,address to, uint256 value)public returns (bool) {\r\n    require(value <= _allowed[from][msg.sender]);\r\n\r\n    _allowed[from][msg.sender] = _allowed[from][msg.sender].sub(value);\r\n    _transfer(from, to, value);\r\n    return true;\r\n  }\r\n\r\n \r\n \r\n  function _transfer(address from, address to, uint256 value) internal {\r\n    require(value <= _balances[from]);\r\n    require(to != address(0));\r\n\r\n    _balances[from] = _balances[from].sub(value);\r\n    _balances[to] = _balances[to].add(value);\r\n    emit Transfer(from, to, value);\r\n  }\r\n\r\n  \r\n  function _mint(address account, uint256 value) internal {\r\n    require(account != address(0));\r\n    _totalSupply = _totalSupply.add(value);\r\n    _balances[account] = _balances[account].add(value);\r\n    emit Transfer(address(0), account, value);\r\n  }\r\n  \r\n  function addMoney(uint256 value)public{\r\n    require(TokenOwner==msg.sender);  \r\n    _mint(msg.sender,value);\r\n  }\r\n\r\n  \r\n}",
  "sourcePath": "C:/Program Files/code/js/bdex-eth-contract/contracts/TestToken.sol",
  "compiler": {
    "name": "solc",
    "version": "0.5.1+commit.c8a2cb62.Emscripten.clang"
  },
  "schemaVersion": "3.0.11",
  "updatedAt": "2019-08-26T05:36:04.763Z",
  "devdoc": {
    "methods": {}
  },
  "userdoc": {
    "methods": {}
  }
}